{
  "contractName": "WealthECrowdsale",
  "abi": [
    {
      "constant": true,
      "inputs": [],
      "name": "TOTAL_SALE_TOKENS",
      "outputs": [
        {
          "name": "",
          "type": "uint256"
        }
      ],
      "payable": false,
      "stateMutability": "view",
      "type": "function"
    },
    {
      "constant": true,
      "inputs": [],
      "name": "tokensDistributed",
      "outputs": [
        {
          "name": "",
          "type": "uint256"
        }
      ],
      "payable": false,
      "stateMutability": "view",
      "type": "function"
    },
    {
      "constant": true,
      "inputs": [],
      "name": "fullSaleStart",
      "outputs": [
        {
          "name": "",
          "type": "uint256"
        }
      ],
      "payable": false,
      "stateMutability": "view",
      "type": "function"
    },
    {
      "constant": true,
      "inputs": [],
      "name": "PUBLIC_START_TIME",
      "outputs": [
        {
          "name": "",
          "type": "uint256"
        }
      ],
      "payable": false,
      "stateMutability": "view",
      "type": "function"
    },
    {
      "constant": true,
      "inputs": [],
      "name": "rate",
      "outputs": [
        {
          "name": "",
          "type": "uint256"
        }
      ],
      "payable": false,
      "stateMutability": "view",
      "type": "function"
    },
    {
      "constant": true,
      "inputs": [],
      "name": "cap",
      "outputs": [
        {
          "name": "",
          "type": "uint256"
        }
      ],
      "payable": false,
      "stateMutability": "view",
      "type": "function"
    },
    {
      "constant": true,
      "inputs": [],
      "name": "multiSig",
      "outputs": [
        {
          "name": "",
          "type": "address"
        }
      ],
      "payable": false,
      "stateMutability": "view",
      "type": "function"
    },
    {
      "constant": true,
      "inputs": [],
      "name": "END_TIME",
      "outputs": [
        {
          "name": "",
          "type": "uint256"
        }
      ],
      "payable": false,
      "stateMutability": "view",
      "type": "function"
    },
    {
      "constant": false,
      "inputs": [],
      "name": "unpause",
      "outputs": [],
      "payable": false,
      "stateMutability": "nonpayable",
      "type": "function"
    },
    {
      "constant": true,
      "inputs": [],
      "name": "weiRaised",
      "outputs": [
        {
          "name": "",
          "type": "uint256"
        }
      ],
      "payable": false,
      "stateMutability": "view",
      "type": "function"
    },
    {
      "constant": true,
      "inputs": [],
      "name": "timelockOwnershipClaimed",
      "outputs": [
        {
          "name": "",
          "type": "bool"
        }
      ],
      "payable": false,
      "stateMutability": "view",
      "type": "function"
    },
    {
      "constant": true,
      "inputs": [],
      "name": "timelockAddress",
      "outputs": [
        {
          "name": "",
          "type": "address"
        }
      ],
      "payable": false,
      "stateMutability": "view",
      "type": "function"
    },
    {
      "constant": true,
      "inputs": [],
      "name": "defaultWhitelistCap",
      "outputs": [
        {
          "name": "",
          "type": "uint256"
        }
      ],
      "payable": false,
      "stateMutability": "view",
      "type": "function"
    },
    {
      "constant": true,
      "inputs": [],
      "name": "paused",
      "outputs": [
        {
          "name": "",
          "type": "bool"
        }
      ],
      "payable": false,
      "stateMutability": "view",
      "type": "function"
    },
    {
      "constant": true,
      "inputs": [],
      "name": "teamTokenAddress",
      "outputs": [
        {
          "name": "",
          "type": "address"
        }
      ],
      "payable": false,
      "stateMutability": "view",
      "type": "function"
    },
    {
      "constant": true,
      "inputs": [
        {
          "name": "",
          "type": "address"
        }
      ],
      "name": "addressWhitelistUsed",
      "outputs": [
        {
          "name": "",
          "type": "uint256"
        }
      ],
      "payable": false,
      "stateMutability": "view",
      "type": "function"
    },
    {
      "constant": true,
      "inputs": [],
      "name": "networkGrowthTokenAddress",
      "outputs": [
        {
          "name": "",
          "type": "address"
        }
      ],
      "payable": false,
      "stateMutability": "view",
      "type": "function"
    },
    {
      "constant": true,
      "inputs": [],
      "name": "TEAM_TOKENS",
      "outputs": [
        {
          "name": "",
          "type": "uint256"
        }
      ],
      "payable": false,
      "stateMutability": "view",
      "type": "function"
    },
    {
      "constant": true,
      "inputs": [],
      "name": "rateSet",
      "outputs": [
        {
          "name": "",
          "type": "bool"
        }
      ],
      "payable": false,
      "stateMutability": "view",
      "type": "function"
    },
    {
      "constant": false,
      "inputs": [],
      "name": "pause",
      "outputs": [],
      "payable": false,
      "stateMutability": "nonpayable",
      "type": "function"
    },
    {
      "constant": true,
      "inputs": [],
      "name": "owner",
      "outputs": [
        {
          "name": "",
          "type": "address"
        }
      ],
      "payable": false,
      "stateMutability": "view",
      "type": "function"
    },
    {
      "constant": true,
      "inputs": [
        {
          "name": "",
          "type": "address"
        }
      ],
      "name": "addressWhitelistCap",
      "outputs": [
        {
          "name": "",
          "type": "uint256"
        }
      ],
      "payable": false,
      "stateMutability": "view",
      "type": "function"
    },
    {
      "constant": true,
      "inputs": [],
      "name": "timelockAddressSet",
      "outputs": [
        {
          "name": "",
          "type": "bool"
        }
      ],
      "payable": false,
      "stateMutability": "view",
      "type": "function"
    },
    {
      "constant": true,
      "inputs": [],
      "name": "GRAINS",
      "outputs": [
        {
          "name": "",
          "type": "uint256"
        }
      ],
      "payable": false,
      "stateMutability": "view",
      "type": "function"
    },
    {
      "constant": true,
      "inputs": [],
      "name": "tokenTimelock",
      "outputs": [
        {
          "name": "",
          "type": "address"
        }
      ],
      "payable": false,
      "stateMutability": "view",
      "type": "function"
    },
    {
      "constant": true,
      "inputs": [],
      "name": "NETWORK_GROWTH_TOKENS",
      "outputs": [
        {
          "name": "",
          "type": "uint256"
        }
      ],
      "payable": false,
      "stateMutability": "view",
      "type": "function"
    },
    {
      "constant": true,
      "inputs": [],
      "name": "RESERVE_TOKENS",
      "outputs": [
        {
          "name": "",
          "type": "uint256"
        }
      ],
      "payable": false,
      "stateMutability": "view",
      "type": "function"
    },
    {
      "constant": true,
      "inputs": [],
      "name": "capSet",
      "outputs": [
        {
          "name": "",
          "type": "bool"
        }
      ],
      "payable": false,
      "stateMutability": "view",
      "type": "function"
    },
    {
      "constant": true,
      "inputs": [],
      "name": "reserveTokenAddress",
      "outputs": [
        {
          "name": "",
          "type": "address"
        }
      ],
      "payable": false,
      "stateMutability": "view",
      "type": "function"
    },
    {
      "constant": false,
      "inputs": [
        {
          "name": "newOwner",
          "type": "address"
        }
      ],
      "name": "transferOwnership",
      "outputs": [],
      "payable": false,
      "stateMutability": "nonpayable",
      "type": "function"
    },
    {
      "constant": true,
      "inputs": [],
      "name": "multiSigSet",
      "outputs": [
        {
          "name": "",
          "type": "bool"
        }
      ],
      "payable": false,
      "stateMutability": "view",
      "type": "function"
    },
    {
      "constant": true,
      "inputs": [],
      "name": "token",
      "outputs": [
        {
          "name": "",
          "type": "address"
        }
      ],
      "payable": false,
      "stateMutability": "view",
      "type": "function"
    },
    {
      "inputs": [
        {
          "name": "_token",
          "type": "address"
        }
      ],
      "payable": false,
      "stateMutability": "nonpayable",
      "type": "constructor"
    },
    {
      "payable": true,
      "stateMutability": "payable",
      "type": "fallback"
    },
    {
      "anonymous": false,
      "inputs": [
        {
          "indexed": true,
          "name": "purchaser",
          "type": "address"
        },
        {
          "indexed": false,
          "name": "value",
          "type": "uint256"
        },
        {
          "indexed": false,
          "name": "amount",
          "type": "uint256"
        }
      ],
      "name": "LogTokenPurchase",
      "type": "event"
    },
    {
      "anonymous": false,
      "inputs": [
        {
          "indexed": true,
          "name": "purchaser",
          "type": "address"
        },
        {
          "indexed": false,
          "name": "whitelistCap",
          "type": "uint256"
        }
      ],
      "name": "LogWhitelistUpdate",
      "type": "event"
    },
    {
      "anonymous": false,
      "inputs": [],
      "name": "Pause",
      "type": "event"
    },
    {
      "anonymous": false,
      "inputs": [],
      "name": "Unpause",
      "type": "event"
    },
    {
      "anonymous": false,
      "inputs": [
        {
          "indexed": true,
          "name": "previousOwner",
          "type": "address"
        },
        {
          "indexed": true,
          "name": "newOwner",
          "type": "address"
        }
      ],
      "name": "OwnershipTransferred",
      "type": "event"
    },
    {
      "constant": false,
      "inputs": [
        {
          "name": "_newStartDate",
          "type": "uint256"
        }
      ],
      "name": "setSaleStart",
      "outputs": [],
      "payable": false,
      "stateMutability": "nonpayable",
      "type": "function"
    },
    {
      "constant": false,
      "inputs": [
        {
          "name": "_multiSig",
          "type": "address"
        }
      ],
      "name": "setMultiSig",
      "outputs": [],
      "payable": false,
      "stateMutability": "nonpayable",
      "type": "function"
    },
    {
      "constant": false,
      "inputs": [
        {
          "name": "_rate",
          "type": "uint256"
        }
      ],
      "name": "setRate",
      "outputs": [],
      "payable": false,
      "stateMutability": "nonpayable",
      "type": "function"
    },
    {
      "constant": false,
      "inputs": [
        {
          "name": "_cap",
          "type": "uint256"
        }
      ],
      "name": "setCap",
      "outputs": [],
      "payable": false,
      "stateMutability": "nonpayable",
      "type": "function"
    },
    {
      "constant": false,
      "inputs": [
        {
          "name": "_timelockAddress",
          "type": "address"
        }
      ],
      "name": "setTimelockAddress",
      "outputs": [],
      "payable": false,
      "stateMutability": "nonpayable",
      "type": "function"
    },
    {
      "constant": false,
      "inputs": [
        {
          "name": "_whitelistCap",
          "type": "uint256"
        }
      ],
      "name": "setDefaultWhitelistCap",
      "outputs": [],
      "payable": false,
      "stateMutability": "nonpayable",
      "type": "function"
    },
    {
      "constant": false,
      "inputs": [],
      "name": "claimTokenOwnership",
      "outputs": [],
      "payable": false,
      "stateMutability": "nonpayable",
      "type": "function"
    },
    {
      "constant": false,
      "inputs": [],
      "name": "claimTimelockOwnership",
      "outputs": [],
      "payable": false,
      "stateMutability": "nonpayable",
      "type": "function"
    },
    {
      "constant": false,
      "inputs": [
        {
          "name": "_address",
          "type": "address"
        },
        {
          "name": "_tokenAmount",
          "type": "uint256"
        }
      ],
      "name": "mintPresaleTokens",
      "outputs": [
        {
          "name": "",
          "type": "bool"
        }
      ],
      "payable": false,
      "stateMutability": "nonpayable",
      "type": "function"
    },
    {
      "constant": false,
      "inputs": [
        {
          "name": "_addresses",
          "type": "address[]"
        },
        {
          "name": "_tokenAmounts",
          "type": "uint256[]"
        }
      ],
      "name": "mintPresaleTokensBatch",
      "outputs": [
        {
          "name": "",
          "type": "bool"
        }
      ],
      "payable": false,
      "stateMutability": "nonpayable",
      "type": "function"
    },
    {
      "constant": false,
      "inputs": [
        {
          "name": "_purchaser",
          "type": "address"
        },
        {
          "name": "_whitelistCap",
          "type": "uint256"
        }
      ],
      "name": "setWhitelistAddress",
      "outputs": [
        {
          "name": "",
          "type": "bool"
        }
      ],
      "payable": false,
      "stateMutability": "nonpayable",
      "type": "function"
    },
    {
      "constant": false,
      "inputs": [
        {
          "name": "_purchasers",
          "type": "address[]"
        },
        {
          "name": "_whitelistCaps",
          "type": "uint256[]"
        }
      ],
      "name": "setWhitelistAddressBatch",
      "outputs": [
        {
          "name": "",
          "type": "bool"
        }
      ],
      "payable": false,
      "stateMutability": "nonpayable",
      "type": "function"
    },
    {
      "constant": false,
      "inputs": [],
      "name": "endSale",
      "outputs": [],
      "payable": false,
      "stateMutability": "nonpayable",
      "type": "function"
    },
    {
      "constant": false,
      "inputs": [],
      "name": "finalize",
      "outputs": [
        {
          "name": "",
          "type": "bool"
        }
      ],
      "payable": false,
      "stateMutability": "nonpayable",
      "type": "function"
    },
    {
      "constant": true,
      "inputs": [
        {
          "name": "_purchaser",
          "type": "address"
        }
      ],
      "name": "getWhitelistCap",
      "outputs": [
        {
          "name": "",
          "type": "uint256"
        }
      ],
      "payable": false,
      "stateMutability": "view",
      "type": "function"
    },
    {
      "constant": true,
      "inputs": [
        {
          "name": "_purchaser",
          "type": "address"
        }
      ],
      "name": "whitelistPermittedAmount",
      "outputs": [
        {
          "name": "",
          "type": "uint256"
        }
      ],
      "payable": false,
      "stateMutability": "view",
      "type": "function"
    },
    {
      "constant": true,
      "inputs": [
        {
          "name": "_wei",
          "type": "uint256"
        }
      ],
      "name": "fullsaleBonusWei",
      "outputs": [
        {
          "name": "",
          "type": "uint256"
        }
      ],
      "payable": false,
      "stateMutability": "view",
      "type": "function"
    },
    {
      "constant": true,
      "inputs": [],
      "name": "hasEnded",
      "outputs": [
        {
          "name": "",
          "type": "bool"
        }
      ],
      "payable": false,
      "stateMutability": "view",
      "type": "function"
    }
  ],
  "bytecode": "0x606060405260008060146101000a81548160ff0219169083151502179055506000600260006101000a81548160ff0219169083151502179055506000600460006101000a81548160ff0219169083151502179055506000600460156101000a81548160ff0219169083151502179055506000600460166101000a81548160ff0219169083151502179055506000600760006101000a81548160ff021916908315150217905550635ac5d780600855734de203840484767a4ba972c202e835cc23fb14d2600960006101000a81548173ffffffffffffffffffffffffffffffffffffffff021916908373ffffffffffffffffffffffffffffffffffffffff1602179055506001600960146101000a81548160ff02191690831515021790555073c9dbf8a53630f6f2ae9de33778f5c77993dd4cf5600a60006101000a81548173ffffffffffffffffffffffffffffffffffffffff021916908373ffffffffffffffffffffffffffffffffffffffff16021790555073022c77a3fb7cb7a654bcdb9467e6175a07fc5162600b60006101000a81548173ffffffffffffffffffffffffffffffffffffffff021916908373ffffffffffffffffffffffffffffffffffffffff16021790555073e345a65989d881c7bf40e7995a38785379df9ceb600c60006101000a81548173ffffffffffffffffffffffffffffffffffffffff021916908373ffffffffffffffffffffffffffffffffffffffff1602179055506000600d55341561022c57600080fd5b60405160208061318e83398101604052808051906020019091905050336000806101000a81548173ffffffffffffffffffffffffffffffffffffffff021916908373ffffffffffffffffffffffffffffffffffffffff160217905550600073ffffffffffffffffffffffffffffffffffffffff168173ffffffffffffffffffffffffffffffffffffffff16141515156102c457600080fd5b80601060006101000a81548173ffffffffffffffffffffffffffffffffffffffff021916908373ffffffffffffffffffffffffffffffffffffffff16021790555050612e79806103156000396000f30060606040526004361061025c576000357c0100000000000000000000000000000000000000000000000000000000900463ffffffff16806308094d521461026757806310731a6514610290578063152e84a7146102a557806315c654f2146102ce578063284d30ef146102f7578063297c4143146103305780632c4e722e146103595780632f181f541461038257806330b2b8aa146103a557806334fcf437146103ff578063355274ea1461042257806336e0004a1461044b57806337ba682d146104a0578063380d831b146104c95780633c739291146104de5780633f4ba83a146105015780634042b66f1461051657806341dc47b61461053f57806346f30458146105f157806347786d371461061e5780634bb278f3146106415780634bc66f321461066e5780634bd68ad2146106c35780635c975abb146106ec5780635d3a5e3b146107195780635dfa9a321461076e57806372b4f4d6146107bb5780637d9f3fa01461080857806381ff4d0b1461085d578063836a4580146108865780638456cb59146108b35780638b6aabc8146108c85780638da5cb5b1461097a57806396587a81146109cf57806397412394146109e4578063a2f0109914610a31578063a7d0672d14610a5e578063b7a2c88b14610a87578063bba5251614610abe578063bdbbcd8c14610b13578063c35d1e0114610b3c578063c4dde6ec14610b65578063c5f350f514610bb2578063ecb70fb714610bdf578063ee1ea4ff14610c0c578063f2fde38b14610c61578063f4bbace814610c9a578063fc0c546a14610cc7578063fc43bbfb14610d1c578063fca79ca214610d76575b610264610daf565b50005b341561027257600080fd5b61027a6110f7565b6040518082815260200191505060405180910390f35b341561029b57600080fd5b6102a3611109565b005b34156102b057600080fd5b6102b86111ff565b6040518082815260200191505060405180910390f35b34156102d957600080fd5b6102e1611205565b6040518082815260200191505060405180910390f35b341561030257600080fd5b61032e600480803573ffffffffffffffffffffffffffffffffffffffff1690602001909190505061120b565b005b341561033b57600080fd5b610343611358565b6040518082815260200191505060405180910390f35b341561036457600080fd5b61036c611360565b6040518082815260200191505060405180910390f35b341561038d57600080fd5b6103a36004808035906020019091905050611366565b005b34156103b057600080fd5b6103e5600480803573ffffffffffffffffffffffffffffffffffffffff169060200190919080359060200190919050506113e8565b604051808215151515815260200191505060405180910390f35b341561040a57600080fd5b6104206004808035906020019091905050611765565b005b341561042d57600080fd5b610435611810565b6040518082815260200191505060405180910390f35b341561045657600080fd5b61045e611816565b604051808273ffffffffffffffffffffffffffffffffffffffff1673ffffffffffffffffffffffffffffffffffffffff16815260200191505060405180910390f35b34156104ab57600080fd5b6104b361183c565b6040518082815260200191505060405180910390f35b34156104d457600080fd5b6104dc611844565b005b34156104e957600080fd5b6104ff60048080359060200190919050506118bc565b005b341561050c57600080fd5b610514611921565b005b341561052157600080fd5b6105296119df565b6040518082815260200191505060405180910390f35b341561054a57600080fd5b6105d7600480803590602001908201803590602001908080602002602001604051908101604052809392919081815260200183836020028082843782019150505050505091908035906020019082018035906020019080806020026020016040519081016040528093929190818152602001838360200280828437820191505050505050919050506119e5565b604051808215151515815260200191505060405180910390f35b34156105fc57600080fd5b610604611acc565b604051808215151515815260200191505060405180910390f35b341561062957600080fd5b61063f6004808035906020019091905050611adf565b005b341561064c57600080fd5b610654611b8a565b604051808215151515815260200191505060405180910390f35b341561067957600080fd5b610681611ccd565b604051808273ffffffffffffffffffffffffffffffffffffffff1673ffffffffffffffffffffffffffffffffffffffff16815260200191505060405180910390f35b34156106ce57600080fd5b6106d6611cf3565b6040518082815260200191505060405180910390f35b34156106f757600080fd5b6106ff611cf9565b604051808215151515815260200191505060405180910390f35b341561072457600080fd5b61072c611d0c565b604051808273ffffffffffffffffffffffffffffffffffffffff1673ffffffffffffffffffffffffffffffffffffffff16815260200191505060405180910390f35b341561077957600080fd5b6107a5600480803573ffffffffffffffffffffffffffffffffffffffff16906020019091905050611d32565b6040518082815260200191505060405180910390f35b34156107c657600080fd5b6107f2600480803573ffffffffffffffffffffffffffffffffffffffff16906020019091905050611d4a565b6040518082815260200191505060405180910390f35b341561081357600080fd5b61081b611db2565b604051808273ffffffffffffffffffffffffffffffffffffffff1673ffffffffffffffffffffffffffffffffffffffff16815260200191505060405180910390f35b341561086857600080fd5b610870611dd8565b6040518082815260200191505060405180910390f35b341561089157600080fd5b610899611dea565b604051808215151515815260200191505060405180910390f35b34156108be57600080fd5b6108c6611dfd565b005b34156108d357600080fd5b61096060048080359060200190820180359060200190808060200260200160405190810160405280939291908181526020018383602002808284378201915050505050509190803590602001908201803590602001908080602002602001604051908101604052809392919081815260200183836020028082843782019150505050505091905050611ebd565b604051808215151515815260200191505060405180910390f35b341561098557600080fd5b61098d611fa4565b604051808273ffffffffffffffffffffffffffffffffffffffff1673ffffffffffffffffffffffffffffffffffffffff16815260200191505060405180910390f35b34156109da57600080fd5b6109e2611fc9565b005b34156109ef57600080fd5b610a1b600480803573ffffffffffffffffffffffffffffffffffffffff1690602001909190505061257c565b6040518082815260200191505060405180910390f35b3415610a3c57600080fd5b610a44612594565b604051808215151515815260200191505060405180910390f35b3415610a6957600080fd5b610a716125a7565b6040518082815260200191505060405180910390f35b3415610a9257600080fd5b610aa860048080359060200190919050506125b3565b6040518082815260200191505060405180910390f35b3415610ac957600080fd5b610ad16127d9565b604051808273ffffffffffffffffffffffffffffffffffffffff1673ffffffffffffffffffffffffffffffffffffffff16815260200191505060405180910390f35b3415610b1e57600080fd5b610b266127ff565b6040518082815260200191505060405180910390f35b3415610b4757600080fd5b610b4f612811565b6040518082815260200191505060405180910390f35b3415610b7057600080fd5b610b9c600480803573ffffffffffffffffffffffffffffffffffffffff16906020019091905050612823565b6040518082815260200191505060405180910390f35b3415610bbd57600080fd5b610bc5612880565b604051808215151515815260200191505060405180910390f35b3415610bea57600080fd5b610bf2612893565b604051808215151515815260200191505060405180910390f35b3415610c1757600080fd5b610c1f6128b8565b604051808273ffffffffffffffffffffffffffffffffffffffff1673ffffffffffffffffffffffffffffffffffffffff16815260200191505060405180910390f35b3415610c6c57600080fd5b610c98600480803573ffffffffffffffffffffffffffffffffffffffff169060200190919050506128de565b005b3415610ca557600080fd5b610cad612a33565b604051808215151515815260200191505060405180910390f35b3415610cd257600080fd5b610cda612a46565b604051808273ffffffffffffffffffffffffffffffffffffffff1673ffffffffffffffffffffffffffffffffffffffff16815260200191505060405180910390f35b3415610d2757600080fd5b610d5c600480803573ffffffffffffffffffffffffffffffffffffffff16906020019091908035906020019091905050612a6c565b604051808215151515815260200191505060405180910390f35b3415610d8157600080fd5b610dad600480803573ffffffffffffffffffffffffffffffffffffffff16906020019091905050612b65565b005b600080600080600080600960149054906101000a900460ff161515610dd357600080fd5b600460009054906101000a900460ff161515610dee57600080fd5b600260009054906101000a900460ff161515610e0957600080fd5b600060149054906101000a900460ff16151515610e2557600080fd5b610e2d612cf3565b1515610e3857600080fd5b610e4133611d4a565b9450349350848411151515610e5557600080fd5b610ea784600f60003373ffffffffffffffffffffffffffffffffffffffff1673ffffffffffffffffffffffffffffffffffffffff16815260200190815260200160002054612d4190919063ffffffff16565b600f60003373ffffffffffffffffffffffffffffffffffffffff1673ffffffffffffffffffffffffffffffffffffffff16815260200190815260200160002081905550610eff60015485612d5f90919063ffffffff16565b9250610f1e600154610f10866125b3565b612d5f90919063ffffffff16565b9150610f338284612d4190919063ffffffff16565b9050610f4a84600554612d4190919063ffffffff16565b600581905550610f6581600654612d4190919063ffffffff16565b60068190555060035460055411151515610f7e57600080fd5b670de0b6b3a76400006311e1a3000260065411151515610f9d57600080fd5b601060009054906101000a900473ffffffffffffffffffffffffffffffffffffffff1673ffffffffffffffffffffffffffffffffffffffff166340c10f1933836000604051602001526040518363ffffffff167c0100000000000000000000000000000000000000000000000000000000028152600401808373ffffffffffffffffffffffffffffffffffffffff1673ffffffffffffffffffffffffffffffffffffffff16815260200182815260200192505050602060405180830381600087803b151561106a57600080fd5b6102c65a03f1151561107b57600080fd5b50505060405180519050151561108d57fe5b3373ffffffffffffffffffffffffffffffffffffffff167f75cc499fa7ad681dd662361f334f9bc3ddc2716d66675f7448b58ef241672ad88583604051808381526020018281526020019250505060405180910390a26110eb612d9a565b60019550505050505090565b670de0b6b3a76400006311e1a3000281565b6000809054906101000a900473ffffffffffffffffffffffffffffffffffffffff1673ffffffffffffffffffffffffffffffffffffffff163373ffffffffffffffffffffffffffffffffffffffff1614151561116457600080fd5b601060009054906101000a900473ffffffffffffffffffffffffffffffffffffffff1673ffffffffffffffffffffffffffffffffffffffff16634e71e0c86040518163ffffffff167c0100000000000000000000000000000000000000000000000000000000028152600401600060405180830381600087803b15156111e957600080fd5b6102c65a03f115156111fa57600080fd5b505050565b60065481565b60085481565b6000809054906101000a900473ffffffffffffffffffffffffffffffffffffffff1673ffffffffffffffffffffffffffffffffffffffff163373ffffffffffffffffffffffffffffffffffffffff1614151561126657600080fd5b600960149054906101000a900460ff1615151561128257600080fd5b600073ffffffffffffffffffffffffffffffffffffffff168173ffffffffffffffffffffffffffffffffffffffff16141515156112be57600080fd5b3073ffffffffffffffffffffffffffffffffffffffff168173ffffffffffffffffffffffffffffffffffffffff16141515156112f957600080fd5b6001600960146101000a81548160ff02191690831515021790555080600960006101000a81548173ffffffffffffffffffffffffffffffffffffffff021916908373ffffffffffffffffffffffffffffffffffffffff16021790555050565b635ac5d78081565b60015481565b6000809054906101000a900473ffffffffffffffffffffffffffffffffffffffff1673ffffffffffffffffffffffffffffffffffffffff163373ffffffffffffffffffffffffffffffffffffffff161415156113c157600080fd5b600854811080156113d3575042600854115b15156113de57600080fd5b8060088190555050565b60008060009054906101000a900473ffffffffffffffffffffffffffffffffffffffff1673ffffffffffffffffffffffffffffffffffffffff163373ffffffffffffffffffffffffffffffffffffffff1614151561144557600080fd5b600460159054906101000a900460ff16151561146057600080fd5b600073ffffffffffffffffffffffffffffffffffffffff168373ffffffffffffffffffffffffffffffffffffffff161415151561149c57600080fd5b3073ffffffffffffffffffffffffffffffffffffffff168373ffffffffffffffffffffffffffffffffffffffff16141515156114d757600080fd5b600960009054906101000a900473ffffffffffffffffffffffffffffffffffffffff1673ffffffffffffffffffffffffffffffffffffffff168373ffffffffffffffffffffffffffffffffffffffff161415151561153457600080fd5b61154982600654612d4190919063ffffffff16565b600681905550670de0b6b3a76400006311e1a300026006541115151561156e57600080fd5b601060009054906101000a900473ffffffffffffffffffffffffffffffffffffffff1673ffffffffffffffffffffffffffffffffffffffff166340c10f19600460019054906101000a900473ffffffffffffffffffffffffffffffffffffffff16846000604051602001526040518363ffffffff167c0100000000000000000000000000000000000000000000000000000000028152600401808373ffffffffffffffffffffffffffffffffffffffff1673ffffffffffffffffffffffffffffffffffffffff16815260200182815260200192505050602060405180830381600087803b151561165d57600080fd5b6102c65a03f1151561166e57600080fd5b50505060405180519050151561168357600080fd5b601160009054906101000a900473ffffffffffffffffffffffffffffffffffffffff1673ffffffffffffffffffffffffffffffffffffffff166366168bd784846040518363ffffffff167c0100000000000000000000000000000000000000000000000000000000028152600401808373ffffffffffffffffffffffffffffffffffffffff1673ffffffffffffffffffffffffffffffffffffffff16815260200182815260200192505050600060405180830381600087803b151561174757600080fd5b6102c65a03f1151561175857600080fd5b5050506001905092915050565b6000809054906101000a900473ffffffffffffffffffffffffffffffffffffffff1673ffffffffffffffffffffffffffffffffffffffff163373ffffffffffffffffffffffffffffffffffffffff161415156117c057600080fd5b600260009054906101000a900460ff161515156117dc57600080fd5b6000811115156117eb57600080fd5b6001600260006101000a81548160ff0219169083151502179055508060018190555050565b60035481565b600960009054906101000a900473ffffffffffffffffffffffffffffffffffffffff1681565b635b020c0081565b6000809054906101000a900473ffffffffffffffffffffffffffffffffffffffff1673ffffffffffffffffffffffffffffffffffffffff163373ffffffffffffffffffffffffffffffffffffffff1614151561189f57600080fd5b6001600760006101000a81548160ff021916908315150217905550565b6000809054906101000a900473ffffffffffffffffffffffffffffffffffffffff1673ffffffffffffffffffffffffffffffffffffffff163373ffffffffffffffffffffffffffffffffffffffff1614151561191757600080fd5b80600d8190555050565b6000809054906101000a900473ffffffffffffffffffffffffffffffffffffffff1673ffffffffffffffffffffffffffffffffffffffff163373ffffffffffffffffffffffffffffffffffffffff1614151561197c57600080fd5b600060149054906101000a900460ff16151561199757600080fd5b60008060146101000a81548160ff0219169083151502179055507f7805862f689e2f13df9f062ff482ad3ad112aca9e0847911ed832e158c525b3360405160405180910390a1565b60055481565b6000806000809054906101000a900473ffffffffffffffffffffffffffffffffffffffff1673ffffffffffffffffffffffffffffffffffffffff163373ffffffffffffffffffffffffffffffffffffffff16141515611a4357600080fd5b60008451111515611a5357600080fd5b82518451141515611a6357600080fd5b600090505b8351811015611ac157611aa98482815181101515611a8257fe5b906020019060200201518483815181101515611a9a57fe5b90602001906020020151612a6c565b1515611ab457600080fd5b8080600101915050611a68565b600191505092915050565b600460169054906101000a900460ff1681565b6000809054906101000a900473ffffffffffffffffffffffffffffffffffffffff1673ffffffffffffffffffffffffffffffffffffffff163373ffffffffffffffffffffffffffffffffffffffff16141515611b3a57600080fd5b600460009054906101000a900460ff16151515611b5657600080fd5b600081111515611b6557600080fd5b6001600460006101000a81548160ff0219169083151502179055508060038190555050565b60008060009054906101000a900473ffffffffffffffffffffffffffffffffffffffff1673ffffffffffffffffffffffffffffffffffffffff163373ffffffffffffffffffffffffffffffffffffffff16141515611be757600080fd5b611bef612893565b1515611bfa57600080fd5b601060009054906101000a900473ffffffffffffffffffffffffffffffffffffffff1673ffffffffffffffffffffffffffffffffffffffff1663f2fde38b336040518263ffffffff167c0100000000000000000000000000000000000000000000000000000000028152600401808273ffffffffffffffffffffffffffffffffffffffff1673ffffffffffffffffffffffffffffffffffffffff168152602001915050600060405180830381600087803b1515611cb657600080fd5b6102c65a03f11515611cc757600080fd5b50505090565b600460019054906101000a900473ffffffffffffffffffffffffffffffffffffffff1681565b600d5481565b600060149054906101000a900460ff1681565b600a60009054906101000a900473ffffffffffffffffffffffffffffffffffffffff1681565b600f6020528060005260406000206000915090505481565b600080611d5683612823565b9050611daa600f60008573ffffffffffffffffffffffffffffffffffffffff1673ffffffffffffffffffffffffffffffffffffffff1681526020019081526020016000205482612e1990919063ffffffff16565b915050919050565b600c60009054906101000a900473ffffffffffffffffffffffffffffffffffffffff1681565b670de0b6b3a76400006307270e000281565b600260009054906101000a900460ff1681565b6000809054906101000a900473ffffffffffffffffffffffffffffffffffffffff1673ffffffffffffffffffffffffffffffffffffffff163373ffffffffffffffffffffffffffffffffffffffff16141515611e5857600080fd5b600060149054906101000a900460ff16151515611e7457600080fd5b6001600060146101000a81548160ff0219169083151502179055507f6985a02210a168e66602d3235cb6db0e70f92b3ba4d376a33c0f3d9434bff62560405160405180910390a1565b6000806000809054906101000a900473ffffffffffffffffffffffffffffffffffffffff1673ffffffffffffffffffffffffffffffffffffffff163373ffffffffffffffffffffffffffffffffffffffff16141515611f1b57600080fd5b60008451111515611f2b57600080fd5b82518451141515611f3b57600080fd5b600090505b8351811015611f9957611f818482815181101515611f5a57fe5b906020019060200201518483815181101515611f7257fe5b906020019060200201516113e8565b1515611f8c57600080fd5b8080600101915050611f40565b600191505092915050565b6000809054906101000a900473ffffffffffffffffffffffffffffffffffffffff1681565b600460159054906101000a900460ff161515611fe457600080fd5b6000809054906101000a900473ffffffffffffffffffffffffffffffffffffffff1673ffffffffffffffffffffffffffffffffffffffff163373ffffffffffffffffffffffffffffffffffffffff1614151561203f57600080fd5b600460169054906101000a900460ff1615151561205b57600080fd5b601160009054906101000a900473ffffffffffffffffffffffffffffffffffffffff1673ffffffffffffffffffffffffffffffffffffffff16634e71e0c86040518163ffffffff167c0100000000000000000000000000000000000000000000000000000000028152600401600060405180830381600087803b15156120e057600080fd5b6102c65a03f115156120f157600080fd5b5050506001600460166101000a81548160ff021916908315150217905550601060009054906101000a900473ffffffffffffffffffffffffffffffffffffffff1673ffffffffffffffffffffffffffffffffffffffff166340c10f19600460019054906101000a900473ffffffffffffffffffffffffffffffffffffffff16670de0b6b3a76400006307270e00026000604051602001526040518363ffffffff167c0100000000000000000000000000000000000000000000000000000000028152600401808373ffffffffffffffffffffffffffffffffffffffff1673ffffffffffffffffffffffffffffffffffffffff16815260200182815260200192505050602060405180830381600087803b151561220c57600080fd5b6102c65a03f1151561221d57600080fd5b50505060405180519050151561223257600080fd5b601160009054906101000a900473ffffffffffffffffffffffffffffffffffffffff1673ffffffffffffffffffffffffffffffffffffffff166366168bd7600a60009054906101000a900473ffffffffffffffffffffffffffffffffffffffff16670de0b6b3a76400006307270e00026040518363ffffffff167c0100000000000000000000000000000000000000000000000000000000028152600401808373ffffffffffffffffffffffffffffffffffffffff1673ffffffffffffffffffffffffffffffffffffffff16815260200182815260200192505050600060405180830381600087803b151561232657600080fd5b6102c65a03f1151561233757600080fd5b505050601060009054906101000a900473ffffffffffffffffffffffffffffffffffffffff1673ffffffffffffffffffffffffffffffffffffffff166340c10f19600c60009054906101000a900473ffffffffffffffffffffffffffffffffffffffff16670de0b6b3a76400006303938700026000604051602001526040518363ffffffff167c0100000000000000000000000000000000000000000000000000000000028152600401808373ffffffffffffffffffffffffffffffffffffffff1673ffffffffffffffffffffffffffffffffffffffff16815260200182815260200192505050602060405180830381600087803b151561243757600080fd5b6102c65a03f1151561244857600080fd5b50505060405180519050151561245a57fe5b601060009054906101000a900473ffffffffffffffffffffffffffffffffffffffff1673ffffffffffffffffffffffffffffffffffffffff166340c10f19600b60009054906101000a900473ffffffffffffffffffffffffffffffffffffffff16670de0b6b3a76400006307270e00026000604051602001526040518363ffffffff167c0100000000000000000000000000000000000000000000000000000000028152600401808373ffffffffffffffffffffffffffffffffffffffff1673ffffffffffffffffffffffffffffffffffffffff16815260200182815260200192505050602060405180830381600087803b151561255757600080fd5b6102c65a03f1151561256857600080fd5b50505060405180519050151561257a57fe5b565b600e6020528060005260406000206000915090505481565b600460159054906101000a900460ff1681565b670de0b6b3a764000081565b6000806000809150662386f26fc100009050610e10600854014211151561261b57612614670de0b6b3a7640000612606836125f8601e89612d5f90919063ffffffff16565b612d5f90919063ffffffff16565b612e3290919063ffffffff16565b91506127cf565b6201518060085401421115156126725761266b670de0b6b3a764000061265d8361264f601989612d5f90919063ffffffff16565b612d5f90919063ffffffff16565b612e3290919063ffffffff16565b91506127ce565b6205460060085401421115156126c9576126c2670de0b6b3a76400006126b4836126a6601489612d5f90919063ffffffff16565b612d5f90919063ffffffff16565b612e3290919063ffffffff16565b91506127cd565b62093a80600854014211151561272057612719670de0b6b3a764000061270b836126fd600f89612d5f90919063ffffffff16565b612d5f90919063ffffffff16565b612e3290919063ffffffff16565b91506127cc565b621baf80600854014211151561277757612770670de0b6b3a764000061276283612754600a89612d5f90919063ffffffff16565b612d5f90919063ffffffff16565b612e3290919063ffffffff16565b91506127cb565b622e248060085401421115156127ca576127c7670de0b6b3a76400006127b9836127ab600589612d5f90919063ffffffff16565b612d5f90919063ffffffff16565b612e3290919063ffffffff16565b91505b5b5b5b5b5b8192505050919050565b601160009054906101000a900473ffffffffffffffffffffffffffffffffffffffff1681565b670de0b6b3a764000063039387000281565b670de0b6b3a76400006307270e000281565b600080600e60008473ffffffffffffffffffffffffffffffffffffffff1673ffffffffffffffffffffffffffffffffffffffff168152602001908152602001600020549050600181141561287757600d5490505b80915050919050565b600460009054906101000a900460ff1681565b6000635b020c004211806128b35750600760009054906101000a900460ff165b905090565b600b60009054906101000a900473ffffffffffffffffffffffffffffffffffffffff1681565b6000809054906101000a900473ffffffffffffffffffffffffffffffffffffffff1673ffffffffffffffffffffffffffffffffffffffff163373ffffffffffffffffffffffffffffffffffffffff1614151561293957600080fd5b600073ffffffffffffffffffffffffffffffffffffffff168173ffffffffffffffffffffffffffffffffffffffff161415151561297557600080fd5b8073ffffffffffffffffffffffffffffffffffffffff166000809054906101000a900473ffffffffffffffffffffffffffffffffffffffff1673ffffffffffffffffffffffffffffffffffffffff167f8be0079c531659141344cd1fd0a4f28419497f9722a3daafe3b4186f6b6457e060405160405180910390a3806000806101000a81548173ffffffffffffffffffffffffffffffffffffffff021916908373ffffffffffffffffffffffffffffffffffffffff16021790555050565b600960149054906101000a900460ff1681565b601060009054906101000a900473ffffffffffffffffffffffffffffffffffffffff1681565b60008060009054906101000a900473ffffffffffffffffffffffffffffffffffffffff1673ffffffffffffffffffffffffffffffffffffffff163373ffffffffffffffffffffffffffffffffffffffff16141515612ac957600080fd5b81600e60008573ffffffffffffffffffffffffffffffffffffffff1673ffffffffffffffffffffffffffffffffffffffff168152602001908152602001600020819055508273ffffffffffffffffffffffffffffffffffffffff167fd0b00eff62b4346f19bba5643380305dec40cf1ee90470a73d69879822aa18c9836040518082815260200191505060405180910390a26001905092915050565b6000809054906101000a900473ffffffffffffffffffffffffffffffffffffffff1673ffffffffffffffffffffffffffffffffffffffff163373ffffffffffffffffffffffffffffffffffffffff16141515612bc057600080fd5b600460159054906101000a900460ff16151515612bdc57600080fd5b600073ffffffffffffffffffffffffffffffffffffffff168173ffffffffffffffffffffffffffffffffffffffff1614151515612c1857600080fd5b3073ffffffffffffffffffffffffffffffffffffffff168173ffffffffffffffffffffffffffffffffffffffff1614151515612c5357600080fd5b6001600460156101000a81548160ff02191690831515021790555080600460016101000a81548173ffffffffffffffffffffffffffffffffffffffff021916908373ffffffffffffffffffffffffffffffffffffffff16021790555080601160006101000a81548173ffffffffffffffffffffffffffffffffffffffff021916908373ffffffffffffffffffffffffffffffffffffffff16021790555050565b60008060006008544210158015612d0e5750635b020c004211155b915060003414159050818015612d215750805b8015612d3a5750600760009054906101000a900460ff16155b9250505090565b6000808284019050838110151515612d5557fe5b8091505092915050565b6000806000841415612d745760009150612d93565b8284029050828482811515612d8557fe5b04141515612d8f57fe5b8091505b5092915050565b600960149054906101000a900460ff161515612db557600080fd5b600960009054906101000a900473ffffffffffffffffffffffffffffffffffffffff1673ffffffffffffffffffffffffffffffffffffffff166108fc349081150290604051600060405180830381858888f193505050501515612e1757600080fd5b565b6000828211151515612e2757fe5b818303905092915050565b6000808284811515612e4057fe5b04905080915050929150505600a165627a7a72305820bb6fb00b3aeef5720c2fc28839b044b48bde0f868f043483cf1c7eb5854ee8e20029",
  "source": "pragma solidity ^0.4.18;\n\nimport 'zeppelin-solidity/contracts/lifecycle/Pausable.sol';\nimport 'zeppelin-solidity/contracts/math/SafeMath.sol';\nimport './WealthE.sol';\nimport './TokenTimelock.sol';\n\ncontract WealthECrowdsale is Pausable {\n\n    using SafeMath for uint256;\n\n    /*----------- Global Constants -----------*/\n\n    uint256 public constant END_TIME = 1526860800;                             // Monday, May 21, 2018 12:00:00 AM GMT crowdsale end time in seconds.\n    uint256 public constant PUBLIC_START_TIME = 1522915200;                    // Thursday, April 5, 2018 8:00:00 AM GMT full public sale start time in seconds.\n    uint256 public constant GRAINS = 10 ** 18;                                 // WealthE Tokens expressed in smallest denomination.\n    uint256 public constant TOTAL_SALE_TOKENS = 300 * (10 ** 6) * (GRAINS);    // Total tokens for sale during crowdsale expressed in grains.\n    uint256 public constant TEAM_TOKENS = 120 * (10 ** 6) * GRAINS;            // Team tokens, locked for 6 months.\n    uint256 public constant NETWORK_GROWTH_TOKENS = 60 * (10 ** 6) * GRAINS;   // Network growth tokens, unlocked.\n    uint256 public constant RESERVE_TOKENS = 120 * (10 ** 6) * GRAINS;         // Reserve tokens, unlocked.\n\n    /*----------- Global Variables -----------*/\n\n    // Token per ETH rate.\n    uint256 public rate;\n    bool public rateSet = false;\n\n    // Hardcap expressed in wei.\n    uint256 public cap;\n    bool public capSet = false;\n\n    // Timelock address.\n    address public timelockAddress;\n    bool public timelockAddressSet = false;\n    bool public timelockOwnershipClaimed = false;\n\n    // Cumulative tracking variable.\n    uint256 public weiRaised;\n    uint256 public tokensDistributed;\n\n    // Owner can trigger an early end.\n    bool ownerEnded = false;\n\n    // Date to begin full sale.\n    uint256 public fullSaleStart = PUBLIC_START_TIME;\n\n    /*----------- Global Address Vairables -----------*/\n\n    // Recipient of the ETH funds collected.\n    address public multiSig = 0x4DE203840484767a4ba972c202E835Cc23Fb14D2;\n    bool public multiSigSet = true;\n\n    address public teamTokenAddress = 0xc9Dbf8A53630F6F2Ae9De33778F5c77993DD4cF5;\n    address public reserveTokenAddress = 0x022C77A3Fb7CB7A654bCdb9467E6175a07fC5162;\n    address public networkGrowthTokenAddress = 0xE345a65989D881C7BF40e7995A38785379dF9CEB;\n\n    /*----------- Global Whitelist Variables -----------*/\n\n    uint256 public defaultWhitelistCap = 0;\n    mapping(address => uint256) public addressWhitelistCap;\n    mapping(address => uint256) public addressWhitelistUsed;\n\n    /*----------- Interfaces -----------*/\n\n    WealthE public token;\n    TokenTimelock public tokenTimelock;\n\n    /*----------- Events -----------*/\n    /**\n     * @dev event for token purchase logging\n     * @param purchaser who paid for and received the tokens\n     * @param value weis paid for purchase\n     * @param amount amount of tokens purchased\n     */\n    event LogTokenPurchase(address indexed purchaser, uint256 value, uint256 amount);\n\n    /**\n     * @dev event for whitelist update logging\n     * @param purchaser who is eligible to purchase tokens\n     * @param whitelistCap individual cap set in wei\n     */\n    event LogWhitelistUpdate(address indexed purchaser, uint256 whitelistCap);\n\n    /*----------- Constructor -----------*/\n    function WealthECrowdsale(WealthE _token)\n        public\n    {\n        require(_token != WealthE(0));\n\n        token = _token;\n    }\n\n    /*----------- Modifiers -----------*/\n    /**\n     *\n     * @dev Ensures multisig beneficiary address is set.\n     *\n     */\n    modifier multiSigIsSet() {\n        require(multiSigSet);\n        _;\n    }\n\n    /**\n     *\n     * @dev Ensures the Token per ETH rate is set.\n     *\n     */\n    modifier rateIsSet() {\n        require(rateSet);\n        _;\n    }\n\n    /**\n     *\n     * @dev Ensures the ETH hardcap is set.\n     *\n     */\n    modifier capIsSet() {\n        require(capSet);\n        _;\n    }\n\n    /**\n     *\n     * @dev Ensures the token timelock address is set.\n     *\n     */\n    modifier timelockAddressIsSet() {\n        require(timelockAddressSet);\n        _;\n    }\n\n    /*----------- Public Methods -----------*/\n    /**\n     * @dev Fallback method is the primary method for participants to interact\n     *      with the sale.\n     */\n    function () public payable {\n        buyTokens();\n    }\n\n    /*----------- Owner: Variable Setters -----------*/\n    /**\n     * @dev Allows owner to move the start date ahead.\n     * @param _newStartDate New full sale start date in Unix time (seconds).\n     */\n    function setSaleStart(uint256 _newStartDate) public onlyOwner {\n        // Trigger earlt fullSaleStart.\n        require(_newStartDate < fullSaleStart && fullSaleStart > now);\n        fullSaleStart = _newStartDate;\n    }\n\n    /**\n     * @dev Allows owner to set the multiSig (i.e. beneficiary) address.\n     *      To maintain trustlessness, the address can only be set one time.\n     * @param _multiSig The multiSig address to receive proceeds of the sale.\n     */\n    function setMultiSig(address _multiSig) public onlyOwner {\n        require(!multiSigSet);\n        require(_multiSig != address(0));\n        require(_multiSig != address(this));\n\n        multiSigSet = true;\n        multiSig = _multiSig;\n    }\n\n    /**\n     * @dev Allows owner to set the Tokens per ETH rate (in grains per wei).\n     *      To maintain trustlessness, the rate can only be set one time.\n     * @param _rate The Tokens per ETH rate.\n     */\n    function setRate(uint256 _rate) public onlyOwner {\n        require(!rateSet);\n        require(_rate > 0);\n\n        rateSet = true;\n        rate = _rate;\n    }\n\n    /**\n     * @dev Allows owner to set the hard cap (denoted in wei).\n     *      To maintain trustlessness, the cap can only be set one time.\n     * @param _cap The ETH hardcap expressed in wei.\n     */\n    function setCap(uint256 _cap) public onlyOwner {\n        require(!capSet);\n        require(_cap > 0);\n\n        capSet = true;\n        cap = _cap;\n    }\n\n    /**\n     * @dev Allows owner to set the timelock address.\n     *      The cap can only be set one time.\n     * @param _timelockAddress The address of the token timelock contract.\n     */\n    function setTimelockAddress(address _timelockAddress) public onlyOwner {\n        require(!timelockAddressSet);\n        require(_timelockAddress != address(0));\n        require(_timelockAddress != address(this));\n\n        timelockAddressSet = true;\n        timelockAddress = _timelockAddress;\n        tokenTimelock = TokenTimelock(_timelockAddress);\n    }\n\n    /**\n     * @dev Allows owner to set the default cap for whitelisted\n     *      participants (denoted in wei).\n     *      Whitelist cap can be set and reset multiple times.\n     * @param _whitelistCap The ETH cap for individual whitelisted participants\n     *             expressed in wei.\n     */\n    function setDefaultWhitelistCap(uint256 _whitelistCap) public onlyOwner {\n        defaultWhitelistCap = _whitelistCap;\n    }\n\n    /*----------- Owner: Claim Token & Timelock -----------*/\n    /**\n     * @dev Claim ownership of claimable token.\n     */\n    function claimTokenOwnership() public onlyOwner {\n        token.claimOwnership();\n    }\n\n    /**\n     * @dev Claim ownership of claimable timelock.\n     */\n    function claimTimelockOwnership()\n        public\n        timelockAddressIsSet\n        onlyOwner\n    {\n        require(!timelockOwnershipClaimed);\n\n        // Claim ownership.\n        tokenTimelock.claimOwnership();\n        timelockOwnershipClaimed = true;\n\n        // Send allocations.\n        // Team Tokens sent to vault.\n        require(token.mint(timelockAddress, TEAM_TOKENS));\n        tokenTimelock.depositTokens(teamTokenAddress, TEAM_TOKENS);\n\n        // Network Growth Tokens.\n        assert(token.mint(networkGrowthTokenAddress, NETWORK_GROWTH_TOKENS));\n\n        // Reserve Tokens.\n        assert(token.mint(reserveTokenAddress, RESERVE_TOKENS));\n    }\n\n    /*----------- Owner: Presale Transfers -----------*/\n    /**\n     * @dev Send tokens to presale participants.\n     * @param _address Address of token recipient.\n     * @param _tokenAmount Amount of tokens to send in grains.\n     */\n    function mintPresaleTokens(address _address, uint256 _tokenAmount)\n        public\n        onlyOwner\n        timelockAddressIsSet\n        returns (bool)\n    {\n        require(_address != address(0));\n        require(_address != address(this));\n        require(_address != multiSig);\n\n        tokensDistributed = tokensDistributed.add(_tokenAmount);\n        require(tokensDistributed <= TOTAL_SALE_TOKENS);\n\n        // Send tokens to Timelock contract and then register address as beneficiary there.\n        require(token.mint(timelockAddress, _tokenAmount));\n        tokenTimelock.depositTokens(_address, _tokenAmount);\n\n        return true;\n    }\n\n    /**\n     * @dev Send tokens to presale participants in batches.\n     *      Be aware of transaction and block gas limits.\n     * @param _addresses Array of token recipient addresses.\n     * @param _tokenAmounts Array of tokens amounts to send (in grains).\n     */\n    function mintPresaleTokensBatch(address[] _addresses, uint256[] _tokenAmounts)\n        public\n        onlyOwner\n        returns (bool)\n    {\n        require(_addresses.length > 0);\n        require(_addresses.length == _tokenAmounts.length);\n\n        for (uint256 i = 0; i < _addresses.length; i++) {\n            require(mintPresaleTokens(_addresses[i], _tokenAmounts[i]));\n        }\n\n        return true;\n    }\n\n    /*----------- Owner: Whitelist -----------*/\n    /**\n     * @dev Set whitelist cap for a single purchaser.\n     * @param _purchaser Address of purchaser.\n     * @param _whitelistCap Purchaser's cap set in wei\n     *             or set to 1 to defer to defaultWhitelistCap.\n     */\n    function setWhitelistAddress(address _purchaser, uint256 _whitelistCap)\n        public\n        onlyOwner\n        returns (bool)\n    {\n        addressWhitelistCap[_purchaser] = _whitelistCap;\n        LogWhitelistUpdate(_purchaser, _whitelistCap);\n\n        return true;\n    }\n\n    /**\n     * @dev Set whitelist cap for multiple purchasers.\n     * @param _purchasers Address array of purchaser.\n     * @param _whitelistCaps Cap array in wei or set to 1 to defer to defaultWhitelistCap.\n     */\n    function setWhitelistAddressBatch(address[] _purchasers, uint256[] _whitelistCaps)\n        public\n        onlyOwner\n        returns (bool)\n    {\n        require(_purchasers.length > 0);\n        require(_purchasers.length == _whitelistCaps.length);\n\n        for (uint256 i = 0; i < _purchasers.length; i++) {\n            require(setWhitelistAddress(_purchasers[i], _whitelistCaps[i]));\n        }\n\n        return true;\n    }\n\n    /*----------- Owner: Finalization -----------*/\n    /**\n     * @dev Owner can trigger an early end to the sale.\n     */\n    function endSale() public onlyOwner {\n        ownerEnded = true;\n    }\n\n    /**\n     * @dev Finalization method to transfer token ownership back to owner.\n     */\n    function finalize() public onlyOwner returns (bool) {\n        require(hasEnded());\n\n        // Transfer token ownership.\n        token.transferOwnership(msg.sender);\n    }\n\n    /*----------- Constant Methods -----------*/\n    /**\n     * @dev Allows purchasers and applications to view current caps by address.\n     *      A cap set to 1 defers to the default cap, otherwise the cap set\n     *      in `addressWhitelistCap` is returned.\n     * @param _purchaser Address to get cap.\n     */\n    function getWhitelistCap(address _purchaser) public view returns (uint256) {\n        uint256 whitelistCap = addressWhitelistCap[_purchaser];\n\n        // whitelistCap of 1 defers to the `defaultWhitelistCap`.\n        if (whitelistCap == 1) {\n            whitelistCap = defaultWhitelistCap;\n        }\n\n        return whitelistCap;\n    }\n\n    /**\n     * @dev Determine how much wei an address is permitted to contribute.\n     * @param _purchaser the address to look up permitted amount.\n     */\n    function whitelistPermittedAmount(address _purchaser) public view returns (uint256) {\n        // Individual purchaser cap.\n        uint256 purchaserCap = getWhitelistCap(_purchaser);\n\n        // Subtract portion of cap they have already used.\n        return purchaserCap.sub(addressWhitelistUsed[_purchaser]);\n    }\n\n    /**\n     * @dev Determines bonus in terms of wei.\n     * @param _wei amount of wei contributed.\n     */\n    function fullsaleBonusWei(uint256 _wei) public view returns (uint256) {\n        uint256 bonus = 0;\n        uint256 twoDigitPercent = 10 ** 16;\n\n        if (now <= fullSaleStart + 1 hours) {\n            // 30% in first hour.\n            bonus = _wei.mul(30).mul(twoDigitPercent).div(GRAINS);\n        } else if (now <= fullSaleStart + 1 days) {\n            // 25% in first day.\n            bonus = _wei.mul(25).mul(twoDigitPercent).div(GRAINS);\n        } else if (now <= fullSaleStart + 4 days) {\n            // 20% within first 4 days.\n            bonus = _wei.mul(20).mul(twoDigitPercent).div(GRAINS);\n        } else if (now <= fullSaleStart + 1 weeks) {\n            // 15% within fist week.\n            bonus = _wei.mul(15).mul(twoDigitPercent).div(GRAINS);\n        } else if (now <= fullSaleStart + 3 weeks) {\n            // 10% within first 3 weeks.\n            bonus = _wei.mul(10).mul(twoDigitPercent).div(GRAINS);\n        } else if (now <= fullSaleStart + 5 weeks) {\n            // 5% within first 5 weeks.\n            bonus = _wei.mul(5).mul(twoDigitPercent).div(GRAINS);\n        }\n\n        return bonus;\n    }\n\n    // @return true if crowdsale event has ended\n    function hasEnded() public view returns (bool) {\n        return now > END_TIME || ownerEnded;\n    }\n\n    // @return true if the transaction can buy tokens\n    function validPurchase() internal view returns (bool) {\n        bool withinPeriod = now >= fullSaleStart && now <= END_TIME;\n        bool nonZeroPurchase = msg.value != 0;\n        return withinPeriod && nonZeroPurchase && !ownerEnded;\n    }\n\n    /*----------- Internal Methods -----------*/\n    /**\n     * @dev Trades ETH for tokens.\n     *      Modified from zeppelin-solidity implementation to restrict purchases\n     *      to KYC list, to handle bonuses, and track tokens distributed.\n     */\n    function buyTokens()\n        internal\n        multiSigIsSet\n        capIsSet\n        rateIsSet\n        whenNotPaused\n        returns (bool)\n    {\n        require(validPurchase());\n\n        // Check whitelist for permitted contribution amount.\n        uint256 permittedWei = whitelistPermittedAmount(msg.sender);\n        uint256 weiAmount = msg.value;\n        require(weiAmount <= permittedWei);\n\n        // Update amount of whitelist cap used.\n        addressWhitelistUsed[msg.sender] = addressWhitelistUsed[msg.sender].add(weiAmount);\n\n        // Calculate token amount to be created.\n        uint256 tokens = weiAmount.mul(rate);\n\n        // Calculate bonus.\n        uint256 bonusTokens = fullsaleBonusWei(weiAmount).mul(rate);\n        uint256 tokensPurchased = tokens.add(bonusTokens);\n\n        // Update tracking state.\n        weiRaised = weiRaised.add(weiAmount);\n        tokensDistributed = tokensDistributed.add(tokensPurchased);\n\n        // Check contribution is within total cap\n        // and tokens are within token cap.\n        require(weiRaised <= cap);\n        require(tokensDistributed <= TOTAL_SALE_TOKENS);\n\n        // Deliver tokens.\n        assert(token.mint(msg.sender, tokensPurchased));\n        LogTokenPurchase(msg.sender, weiAmount, tokensPurchased);\n\n        // Immediately send ETH to multiSig address.\n        forwardFunds();\n\n        return true;\n    }\n\n    /**\n     * @dev Forwards funds collected to secure multiSig wallet.\n     */\n    function forwardFunds() internal multiSigIsSet {\n        multiSig.transfer(msg.value);\n    }\n}\n",
  "sourcePath": "/Users/noahmarconi/wealth-e-contracts/contracts/WealthECrowdsale.sol",
  "compiler": {
    "name": "solc",
    "version": "0.4.19+commit.c4cbbb05.Emscripten.clang"
  },
  "schemaVersion": "2.0.0",
  "updatedAt": "2018-03-14T13:49:18.139Z"
}